S02B000053797374656D20313220636F756E7465724261736564547269676765725573696E67496E746572727F
S11300000C9434000C943E000C943E000C943E007E
S11300100C943E000C943E000C943E000C943E0064
S11300200C943E000C943E000C943E000C943E0054
S11300300C943E000C943E000C943E000C943E0044
S11300400C944F000C943E000C943E000C943E0023
S11300500C943E000C943E000C943E000C943E0024
S11300600C943E000C943E0011241FBECFEFD8E048
S1130070DEBFCDBF0E9440000C9463000C940000CE
S1130080259A54985C9A85B5866085BD8BEF86BDAC
S1130090EEE6F0E08081816080837894FFCF1F9248
S11300A00F920FB60F9211248F939F9395B180E214
S11300B0892785B98BEF86BD9F918F910F900FBED5
S10D00C00F901F901895F894FFCFDD
S9030000FC
