S019000053797374656D202D3520506F6C6C696E672E737265630F
S11300000C9434000C943E000C943E000C943E007E
S11300100C943E000C943E000C943E000C943E0064
S11300200C943E000C943E000C943E000C943E0054
S11300300C943E000C943E000C943E000C943E0044
S11300400C943E000C943E000C943E000C943E0034
S11300500C943E000C943E000C943E000C943E0024
S11300600C943E000C943E0011241FBECFEFD8E048
S1130070DEBFCDBF0E9440000C9462000C940000CF
S113008084B1816284B952985A9A90E221E085B190
S1130090892785B93FEF43EC89E0315040408040E7
S11300A0E1F700C000004A99F2CF85B1822785B9F3
S11300B03FEF43EC89E0315040408040E1F700C01D
S10B00C00000E5CFF894FFCF26
S9030000FC
