S00F00005247425F4C45442E7372656306
S11300000C9434000C943E000C943E000C943E007E
S11300100C943E000C943E000C943E000C943E0064
S11300200C943E000C943E000C943E000C943E0054
S11300300C943E000C943E000C943E000C943E0044
S11300400C943E000C943E000C943E000C943E0034
S11300500C943E000C945D000C943E000C943E0005
S11300600C943E000C943E0011241FBECFEFD8E048
S1130070DEBFCDBF0E9440000C94EB010C94000045
S113008084B1876084B93898ECE7F0E08081887F98
S1130090808380818F7380648083EAE7F0E08081CD
S11300A0876080838081806880838081886080838A
S11300B07894808180648083FFCF1F920F920FB663
S11300C00F921124CF92DF92EF92FF922F933F93DE
S11300D04F935F936F937F938F939F93AF93BF934C
S11300E0EF93FF93609178007091790080E090E045
S11300F00E94C70020E030E040EA50E40E94090179
S113010020E030E040E85AE30E9409016B017C01E1
S113011085B1887F85B920E030E040E050E4C70134
S1130120B6010E940401181614F4289A16C020E09F
S113013030E040E85FE3C701B6010E9404011816ED
S113014014F4299A0AC020E030E0A901C701B601DD
S11301500E94040118160CF42A9AEAE7F0E0808160
S113016080648083FF91EF91BF91AF919F918F91B4
S11301707F916F915F914F913F912F91FF90EF90FD
S1130180DF90CF900F900FBE0F901F901895E894BA
S113019009C097FB3EF490958095709561957F4FCB
S11301A08F4F9F4F9923A9F0F92F96E9BB27939579
S11301B0F695879577956795B795F111F8CFFAF489
S11301C0BB0F11F460FF1BC06F5F7F4F8F4F9F4FBA
S11301D016C0882311F096E911C0772321F09EE818
S11301E0872F762F05C0662371F096E8862F70E07E
S11301F060E02AF09A95660F771F881FDAF7880F58
S11302009695879597F908950E94760108F48FEFE3
S113021008950E941C010C94B1010E94A30138F0BE
S11302200E94AA0120F0952311F00C949A010C94D9
S1130230A00111240C94E5010E94C20170F3959F62
S1130240C1F3950F50E0551F629FF001729FBB27C9
S1130250F00DB11D639FAA27F00DB11DAA1F649F65
S11302606627B00DA11D661F829F2227B00DA11D18
S1130270621F739FB00DA11D621F839FA00D611D9E
S1130280221F749F3327A00D611D231F849F600DBF
S1130290211D822F762F6A2F11249F5750409AF0E8
S11302A0F1F088234AF0EE0FFF1FBB1F661F771F74
S11302B0881F91505040A9F79E3F510580F00C943F
S11302C09A010C94E5015F3FE4F3983ED4F38695DC
S11302D077956795B795F795E7959F5FC1F7FE2BDF
S11302E0880F911D9695879597F90895990F0008A1
S11302F0550FAA0BE0E8FEEF16161706E807F907F4
S1130300C0F012161306E407F50798F0621B730B8E
S1130310840B950B39F40A2661F0232B242B252B0F
S113032021F408950A2609F4A140A6958FEF811DB2
S1130330811D089597F99F6780E870E060E0089553
S11303409FEF80EC089500240A94161617061806E9
S11303500906089500240A941216130614060506C5
S11303600895092E0394000C11F4882352F0BB0F56
S113037040F4BF2B11F460FF04C06F5F7F4F8F4FB9
S11303809F4F089557FD9058440F551F59F05F3FF4
S113039071F04795880F97FB991F61F09F3F79F0A3
S11303A087950895121613061406551FF2CF469525
S11303B0F1DF08C0161617061806991FF1CF8695A7
S11303C07105610508940895E894BB27662777278B
S10D03D0CB0197F90895F894FFCFCC
S9030000FC
