S016000053797374656D2037205043494E542E7372656394
S11300000C9434000C943E000C943E000C943E007E
S11300100C943E000C9467000C943E000C943E003B
S11300200C943E000C943E000C943E000C943E0054
S11300300C943E000C943E000C943E000C943E0044
S11300400C943E000C943E000C943E000C943E0034
S11300500C943E000C943E000C943E000C943E0024
S11300600C943E000C943E0011241FBECFEFD8E048
S1130070DEBFCDBF0E9440000C947B000C940000B6
S113008084B1816284B952985A9AE8E6F0E080819A
S113009084608083EDE6F0E08081846080837894DE
S11300A041E050E025B185B1BA0102C0660F771F67
S11300B08A95E2F7CB01822785B97FEF83EC99E03B
S11300C0715080409040E1F700C00000EBCF1F92D8
S11300D00F920FB60F9211248F939F934A9904C0E5
S11300E095B181E0892785B99F918F910F900FBEBB
S10D00F00F901F901895F894FFCFAD
S9030000FC
