S022000053797374656D2034206475616C205261746520426C696E6B65722E73726563D0
S11300000C9434000C943E000C943E000C943E007E
S11300100C943E000C943E000C943E000C943E0064
S11300200C943E000C943E000C943E000C943E0054
S11300300C943E000C943E000C943E000C943E0044
S11300400C943E000C943E000C943E000C943E0034
S11300500C943E000C943E000C943E000C943E0024
S11300600C943E000C943E0011241FBECFEFD8E048
S1130070DEBFCDBF0E9440000C945D000C940000D4
S1130080209A2198299A91E085B1892785B9199BED
S11300900AC02FEF39E688E1215030408040E1F773
S11300A000C00000F1CF2FEF33EC89E02150304045
S11100B08040E1F700C00000E7CFF894FFCFD6
S9030000FC
