:100000000C9434000C943E000C943E000C943E0082
:100010000C943E000C943E000C943E000C943E0068
:100020000C943E000C943E000C943E000C943E0058
:100030000C943E000C943E000C943E000C943E0048
:100040000C943E000C943E000C943E000C943E0038
:100050000C943E000C943E000C943E000C943E0028
:100060000C943E000C943E0011241FBECFEFD8E04C
:10007000DEBFCDBF0E9440000C945A000C940000DB
:10008000259AE1E8F0E080818360808380EB9CE347
:10009000909385008093840090E2E4E8F0E020EB08
:1000A0003CE3B09BFECF85B1892785B9318320839E
:0800B000B09AF7CFF894FFCFDE
:00000001FF
