S01700004475616C52617465426C696E6B65722E7372656334
S11300000C9434000C943E000C943E000C943E007E
S11300100C943E000C943E000C943E000C943E0064
S11300200C943E000C943E000C943E000C943E0054
S11300300C943E000C943E000C943E000C943E0044
S11300400C943E000C943E000C943E000C943E0034
S11300500C943E000C943E000C943E000C943E0024
S11300600C943E000C943E0011241FBECFEFD8E048
S1130070DEBFCDBF0E9440000C945D000C940000D4
S1130080249A2098289A90E185B1892785B9189BEC
S11300900AC02FEF39E688E1215030408040E1F773
S11300A000C00000F1CF2FEF33EC89E02150304045
S11100B08040E1F700C00000E7CFF894FFCFD6
S9030000FC
