:100000000C9434000C943E000C943E000C943E0082
:100010000C943E000C943E000C943E000C943E0068
:100020000C943E000C943E000C943E000C943E0058
:100030000C943E000C943E000C943E000C943E0048
:100040000C943E000C943E000C943E000C943E0038
:100050000C943E000C943E000C943E000C943E0028
:100060000C943E000C943E0011241FBECFEFD8E04C
:10007000DEBFCDBF0E9440000C94E5010C9400004F
:10008000CF92DF92EF92FF9284B18F6384B9389858
:10009000ECE7F0E080818F73806480838081887FCB
:1000A0008083EAE7F0E080818760808380818068D8
:1000B0008083808180648083808186FDFDCF609114
:1000C00078007091790080E090E00E94C10020E00B
:1000D00030E040EA50E40E94030120E030E040E8D4
:1000E0005AE30E9403016B017C0185B1807E85B9D2
:1000F00020E030E040E850E4C701B6010E94FE0075
:10010000181624F485B18F6185B934C020E030E041
:1001100040E450E4C701B6010E94FE00181624F422
:1001200085B18F6085B926C020E030E040E050E422
:10013000C701B6010E94FE00181624F485B187603D
:1001400085B918C020E030E040E85FE3C701B601A0
:100150000E94FE00181624F485B1836085B90AC098
:1001600020E030E0A901C701B6010E94FE00181688
:100170000CF4289A80E090E0FF90EF90DF90CF9011
:100180000895E89409C097FB3EF49095809570958A
:1001900061957F4F8F4F9F4F9923A9F0F92F96E9D3
:1001A000BB279395F695879577956795B795F11148
:1001B000F8CFFAF4BB0F11F460FF1BC06F5F7F4FE5
:1001C0008F4F9F4F16C0882311F096E911C07723F7
:1001D00021F09EE8872F762F05C0662371F096E800
:1001E000862F70E060E02AF09A95660F771F881FCF
:1001F000DAF7880F9695879597F908950E94700110
:1002000008F48FEF08950E9416010C94AB010E9430
:100210009D0138F00E94A40120F0952311F00C9468
:1002200094010C949A0111240C94DF010E94BC01EA
:1002300070F3959FC1F3950F50E0551F629FF00139
:10024000729FBB27F00DB11D639FAA27F00DB11D52
:10025000AA1F649F6627B00DA11D661F829F2227DB
:10026000B00DA11D621F739FB00DA11D621F839F62
:10027000A00D611D221F749F3327A00D611D231F38
:10028000849F600D211D822F762F6A2F11249F5786
:1002900050409AF0F1F088234AF0EE0FFF1FBB1F89
:1002A000661F771F881F91505040A9F79E3F510548
:1002B00080F00C9494010C94DF015F3FE4F3983ECE
:1002C000D4F3869577956795B795F795E7959F5FF2
:1002D000C1F7FE2B880F911D9695879597F9089584
:1002E000990F0008550FAA0BE0E8FEEF1616170647
:1002F000E807F907C0F012161306E407F50798F0AF
:10030000621B730B840B950B39F40A2661F0232BC7
:10031000242B252B21F408950A2609F4A140A69543
:100320008FEF811D811D089597F99F6780E870E028
:1003300060E008959FEF80EC089500240A9416165B
:10034000170618060906089500240A9412161306C3
:10035000140605060895092E0394000C11F4882351
:1003600052F0BB0F40F4BF2B11F460FF04C06F5F6D
:100370007F4F8F4F9F4F089557FD9058440F551F43
:1003800059F05F3F71F04795880F97FB991F61F017
:100390009F3F79F087950895121613061406551F8E
:1003A000F2CF4695F1DF08C0161617061806991FFA
:1003B000F1CF86957105610508940895E894BB27EF
:0E03C00066277727CB0197F90895F894FFCFB1
:00000001FF
