S01B0000436F756E7465724261736564547269676765722E7372656376
S11300000C9434000C943E000C943E000C943E007E
S11300100C943E000C943E000C943E000C943E0064
S11300200C943E000C943E000C943E000C943E0054
S11300300C943E000C943E000C943E000C943E0044
S11300400C943E000C943E000C943E000C943E0034
S11300500C943E000C943E000C943E000C943E0024
S11300600C943E000C943E0011241FBECFEFD8E048
S1130070DEBFCDBF0E9440000C9450000C940000E1
S1130080259A54985C9A85B5866085BD16BC90E225
S113009086B58530E8F385B1892785B916BCF8CFD4
S10700A0F894FFCFFE
S9030000FC
