:100000000C9434000C943E000C943E000C943E0082
:100010000C943E000C943E000C943E000C943E0068
:100020000C943E000C943E000C943E000C943E0058
:100030000C943E000C943E000C943E000C943E0048
:100040000C943E000C943E000C943E000C943E0038
:100050000C943E000C943E000C943E000C943E0028
:100060000C943E000C943E0011241FBECFEFD8E04C
:10007000DEBFCDBF0E9440000C9452000C940000E3
:10008000259A54985C9A85B5866085BD8BEF86BDB0
:1000900020E29BEFA89BFECF85B1822785B996BD54
:0800A000A89AF8CFF894FFCFF5
:00000001FF
