:100000000C9434000C943E000C943E000C943E0082
:100010000C943E000C943E000C943E000C943E0068
:100020000C943E000C943E000C943E000C943E0058
:100030000C943E000C943E000C943E000C943E0048
:100040000C943E000C943E000C943E000C943E0038
:100050000C943E000C943E000C943E000C943E0028
:100060000C943E000C943E0011241FBECFEFD8E04C
:10007000DEBFCDBF0E944E000C9456000C940000D1
:1000800009E21FEF2FEF2A95F1F71A95D9F70A9594
:10009000C1F70C94400080E090E00895209A289ADF
:1000A0000E94400028980E944000F9CFF894FFCFAA
:00000001FF
