S014000041737369676E6D656E7420312E73726563A6
S11300000C9434000C943E000C943E000C943E007E
S11300100C943E000C943E000C943E000C943E0064
S11300200C943E000C943E000C943E000C943E0054
S11300300C943E000C943E000C943E000C943E0044
S11300400C943E000C943E000C943E000C943E0034
S11300500C943E000C943E000C943E000C943E0024
S11300600C943E000C943E0011241FBECFEFD8E048
S1130070DEBFCDBF0E9440000C9497000C9400009A
S113008084B18F6184B961E070E080E090E045B1B3
S11300909B01082E02C0220F331F0A94E2F7342F6B
S11300A0322735B94FEF51EEE4E041505040E04083
S11300B0E1F700C0000035B12095232325B92FEFC7
S11300C031EE44E0215030404040E1F700C00000F0
S11300D08430910531F584E090E045B19B01082E10
S11300E002C0220F331F0A94E2F7342F322735B9A6
S11300F05FEFE1EE44E05150E0404040E1F700C0E2
S1130100000035B12095232325B95FEFE1EE24E00B
S11301105150E0402040E1F700C000000197E8F6AC
S1130120B4CF01968530910509F0B1CFAECFF894E4
S1050130FFCFFB
S9030000FC
